:100000000C947C000C94A4000C94A4000C947B131E
:100010000C947B130C947B130C94A4000C94A112ED
:100020000C94A4000C94A4000C94A4000C94A400C0
:100030000C94A4000C94A4000C94A4000C94A400B0
:100040000C9457120C94A4000C9449130C94231391
:100050000C94A4000C94A4000C94A4000C94A40090
:100060000C94A4000C94A400CDCCCC3D0AD7233C26
:1000700017B7D13877CC2B329595E6241FB14F0AAC
:10008000000020410000C84200401C4620BCBE4C7D
:10009000CA1B0E5AAEC59D74000000002400270044
:1000A0002A0000000008000201000003040700000D
:1000B00000000000000002000000002300260029CC
:1000C0000000000000250028002B000404040404A4
:1000D00004040402020202020203030303030301F5
:1000E00002040810204080010204081020010204CC
:1000F00008102000F313F71711241FBECFEFD8E02C
:10010000DEBFCDBF23E0AAEDB2E001C01D92AF3F3C
:10011000B207E1F712E0A0E0B1E0ECE1F9E302C0E0
:1001200005900D92AA3DB107D9F710E0CBE7D0E0DA
:1001300004C02197FE010E94671ACA37D107C9F788
:100140000E949E140C94811C0C9400000F931F932A
:10015000CF938B019C01C42FE0914F03F09150038A
:1001600082E08083011581EE18072105310509F42D
:1001700041C060E079E08DE390E0A90198010E9420
:10018000451A21503109410951095695479537952E
:100190002795E0914B03F0914C031082E0914D03C1
:1001A000F0914E03208310925703E0915303F09196
:1001B0005403C083E0915103F09152038081806128
:1001C0008083E0915103F0915203808188608083A5
:1001D000E0915103F0915203808180688083E09127
:1001E0005103F091520380818F7D8083CF911F91C5
:1001F0000F910895E0914F03F0915003108220E198
:10020000C8CF833081F028F4813099F08230A9F092
:1002100008958730A9F08830C9F08430B1F4809116
:1002200080008F7D03C0809180008F778093800055
:10023000089584B58F7784BD089584B58F7DFBCFF5
:100240008091B0008F778093B00008958091B000C6
:100250008F7DF9CFCF93DF93282F30E0F901EE5552
:10026000FF4F8491F901E152FF4FD491F901E55319
:10027000FF4FC491CC23A1F081110E940101EC2F0A
:10028000F0E0EE0FFF1FE954FF4FA591B491EC9100
:10029000ED2381E090E009F480E0DF91CF910895B3
:1002A00080E090E0FACF1F93CF93DF93282F30E0C8
:1002B000F901EE55FF4F8491F901E152FF4FD491BE
:1002C000F901E553FF4FC491CC23A9F0162F8111FA
:1002D0000E940101EC2FF0E0EE0FFF1FEF53FF4FE4
:1002E000A591B4918FB7F894EC91111108C0D095F5
:1002F000DE23DC938FBFDF91CF911F910895DE2B1A
:10030000F8CFCF93DF9390E0FC01E152FF4F2491AF
:1003100085539F4FFC0184918823D1F090E0880F92
:10032000991FFC01E856FF4FA591B491FC01EF53D2
:10033000FF4FC591D49161110EC09FB7F8948C9175
:10034000E22FE0958E238C932881E223E8839FBFE0
:10035000DF91CF9108958FB7F894EC91E22BEC9355
:100360008FBFF6CFCF93809104018D3021F08F3F66
:1003700061F1CF910895E6EBF0E0C491C7FDF9CFAC
:1003800061E08DE00E948101CC2309F48CC0C23071
:1003900009F0A1C08091B100887F83608093B10093
:1003A00083E68093B30084EF91E0A0E0B0E0809317
:1003B000330390933403A0933503B09336038091B5
:1003C0007000826080937000D4CF8DE08093040130
:1003D000E6EBF0E0C491CF3F61F2C13021F150F083
:1003E000C23009F43EC0C7FDC4CF61E08DE00E9479
:1003F0008101CDCF14BC15BC84B5826084BD85B5A8
:10040000816085BDE8EDF0E0E491F0E0EE0FFF1FC4
:10041000EF53FF4F85919491ECEEF0E0E491E0937F
:100420003203C0E0ADCF1092800010928100809125
:100430008100886080938100809181008160809339
:100440008100E8EDF0E0E491F0E0EE0FFF1FEF53E4
:10045000FF4F85919491ECEEF0E0E491E09331034D
:100460008FCF1092B0001092B1008091B0008260E6
:100470008093B0008091B10081608093B100E8ED7D
:10048000F0E0E491F0E0EE0FFF1FEF53FF4F859196
:1004900094919093300380932F03ECEEF0E0E4917D
:1004A000E0932E036DCF85B5887F836085BD81E3A2
:1004B00087BD84EF91E0A0E0B0E080933B03909390
:1004C0003C03A0933D03B0933E0380916E00826095
:1004D00080936E004ECFC130F1F480918100887F0F
:1004E0008160809381008FE79CE0909389008093E6
:1004F000880084EF91E0A0E0B0E080933703909310
:100500003803A0933903B0933A0380916F0082605F
:1005100080936F002ECFC23021F0C1112ACF8FE718
:10052000C7CF8FE73ECF3FB7F89480912A039091D1
:100530002B03A0912C03B0912D0326B5A89B05C0D9
:100540002F3F19F00196A11DB11D3FBFBA2FA92F52
:10055000982F8827BC01CD01620F711D811D911D4F
:1005600042E0660F771F881F991F4A95D1F70895BB
:100570008F929F92AF92BF92CF92DF92EF92FF92B3
:100580004B015C010E9493026B017C010E9493026B
:100590006C197D098E099F09683E7340810591059C
:1005A000A8F321E0821A9108A108B10888EEC80ECC
:1005B00083E0D81EE11CF11C81149104A104B10454
:1005C00029F7FF90EF90DF90CF90BF90AF909F9072
:1005D0008F9008950895CF93DF93EC012FB7F8948F
:1005E0008091260390912703A0912803B0912903BD
:1005F0002FBF88879987AA87BB87E881F981028402
:10060000F385E02DCE01099597FF1EC02FB7F89412
:100610008091260390912703A0912803B09129038C
:100620002FBF488559856A857B85841B950BA60B52
:10063000B70B4C815D816E817F8184179507A6077A
:10064000B707D8F28FEF9FEFDF91CF910895AF9268
:10065000BF92CF92DF92EF92FF920F931F93CF93AF
:10066000DF936C017B018B01040F151FEB015E0111
:10067000AE18BF08C017D10759F06991D601ED91A6
:10068000FC910190F081E02DC6010995892B79F745
:10069000C501DF91CF911F910F91FF90EF90DF90F7
:1006A000CF90BF90AF900895FC01538D448D252FBE
:1006B00030E0842F90E0821B930B541710F0CF96FC
:1006C000089501970895FC01918D828D981761F02E
:1006D000A28DAE0FBF2FB11D5D968C91928D9F5F45
:1006E0009F73928F90E008958FEF9FEF0895FC0124
:1006F000918D828D981731F0828DE80FF11D858DD7
:1007000090E008958FEF9FEF0895FC01918D228D69
:10071000892F90E0805C9F4F821B91098F739927EE
:1007200008958FE393E00E94850321E0892B09F46B
:1007300020E0822F089580E090E0892B29F00E942C
:10074000910381110C9400000895FC01A48DA80F61
:10075000B92FB11DA35ABF4F2C91848D90E0019603
:100760008F739927848FA689B7892C93A089B18923
:100770008C91837080648C93938D848D981306C0C4
:100780000288F389E02D80818F7D80830895EF9228
:10079000FF920F931F93CF93DF93EC0181E0888F3B
:1007A0009B8D8C8D98131AC0E889F989808185FF0B
:1007B00015C09FB7F894EE89FF896083E889F989AD
:1007C00080818370806480839FBF81E090E0DF91AF
:1007D000CF911F910F91FF90EF900895F62E0B8D02
:1007E00010E00F5F1F4F0F731127E02E8C8D8E11BD
:1007F0000CC00FB607FCFACFE889F989808185FF24
:10080000F5CFCE010E94A503F1CFEB8DEC0FFD2FAC
:10081000F11DE35AFF4FF0829FB7F8940B8FEA89DE
:10082000FB8980818062CFCFCF93DF93EC01888DED
:100830008823B9F0AA89BB89E889F9898C9185FD5B
:1008400003C0808186FD0DC00FB607FCF7CF8C91E9
:1008500085FFF2CF808185FFEDCFCE010E94A503F9
:10086000E9CFDF91CF91089520911D0330911E03B0
:100870002817390771F490911B0380911C03981776
:1008800041F0E0911B03F0E0E552FD4F808190E0E4
:1008900008958FEF9FEF08950895EF92FF920F93C1
:1008A0001F93CF93DF93DC015C96ED90FC905D97F6
:1008B000E114F10479F481E090E013969C938E9317
:1008C000129790E080E0DF91CF911F910F91FF9000
:1008D000EF9008955196ED91FC91529750968C911E
:1008E0005097982F90950FB75E962C915E97122F88
:1008F000127021FD6095F8942081112319F1282BA5
:100900002083E7012197F1F728E0462F50E030815E
:1009100060FF1AC0382B3083E7012197F1F7BA0145
:1009200075956795215089F7112381F0808189237E
:1009300080830FBF5C968D919C910197F1F781E0C8
:1009400090E0C1CF2923DCCF3923E5CF9081892BDB
:10095000EFCF20911D0330911E032817390761F452
:1009600080911C0320911B0390E0805C9F4F821BB1
:1009700091098F739927089590E080E00895209160
:100980001D0330911E0328173907B9F490911B03FA
:1009900080911C03981789F0E0911B03F0E0E55269
:1009A000FD4F808120911B0330E02F5F3F4F2F735D
:1009B000332720931B0390E008958FEF9FEF089556
:1009C00090E080E008956F3FB1F0E62FE295EF7080
:1009D00044E0E49F90011124DC01ED91FC91E20FD1
:1009E000F31F6F70B8E06B9FC001112462817381A7
:1009F000860F971F089590E080E008950E94B2014D
:100A000064E670E080E090E00E94B80261E08EE071
:100A10000E94530160E08CE00E94530162E370E0A9
:100A200080E090E00E94B80261E08CE00E945301F7
:100A300062E370E080E090E00E94B80261E08EE046
:100A40000C945301CF93DF93C2E0D0E00E94B20137
:100A500064E670E080E090E00E94B80260E08EE022
:100A60000E94530162E370E080E090E00E94B802CF
:100A700061E08EE00E94530162E370E080E090E06C
:100A80000E94B802219719F4DF91CF910895C1E037
:100A9000D0E0DCCFCF93DF93C3E0D0E00E94B2017F
:100AA00062E370E080E090E00E94B80261E08EE0D6
:100AB0000E94530160E08BE00E94530162E370E00A
:100AC00080E090E00E94B80261E08BE00E94530158
:100AD00062E370E080E090E00E94B80260E08EE0A7
:100AE0000E9453012197D1F6DF91CF910895CF93C2
:100AF000C82F0E942A01009729F18C2F0E942A01F9
:100B0000892B39F062E370E080E090E00E94B80247
:100B1000F4CF64E670E080E090E00E94B8028C2F91
:100B20000E942A01892B61F08C2F0E942A01892BB7
:100B300059F062E370E080E090E00E94B802F4CFE8
:100B400081E090E0CF91089582E090E0FBCFAF92FA
:100B5000BF92DF92EF92FF920F931F93CF93DF9399
:100B6000EC01088119816B817C816115710571F03F
:100B7000DB018D919C919C838B83D801ED91FC913D
:100B80000280F381E02DC8010995EDCF5E01B5E04B
:100B9000AB0EB11CE880F980D12C6D897E898F89DC
:100BA000D816E0F4E4E0DE9E80011124060F171F42
:100BB000D80112966D917C916115710541F0D701B4
:100BC000ED91FC910280F381E02DC7010995F801B8
:100BD0001382128210821182D394DFCF1F8A8FEF8B
:100BE000898FA616B70689F0D701ED91FC91028096
:100BF000F381E02DC701DF91CF911F910F91FF90FD
:100C0000EF90DF90BF90AF900994DF91CF911F914B
:100C10000F91FF90EF90DF90BF90AF900895FC018F
:100C20009289915084E0989F90011124A089B18904
:100C3000A20FB31F1296ED91FC9113973097E9F034
:100C400011962C9111978C912817B8F481E0820F9E
:100C500011968C9388E0289FA0011124E40FF51FC2
:100C6000309759F014828FEF858317821682BF0167
:100C7000892F8295807F820F089560E070E08FEF6A
:100C80000895CF93DF93EC01A881B981F0E0E0E013
:100C9000109741F1CD01049668177907F1F4129687
:100CA0009C911297915012969C93129791111AC091
:100CB0008D919C911197309769F091838083EA011F
:100CC000E881F9810280F381E02DBD01CA01DF9145
:100CD000CF91099499838883F2CFFD010D90BC9147
:100CE000A02DD6CFDF91CF9108958F929F92AF9292
:100CF000BF92CF92DF92EF92FF920F931F93CF9309
:100D0000DF938C01EB01FC01848180FF0AC04881E4
:100D10005981608171816C5F7F4FCE0103960E9483
:100D20004106F8018481807681F10115110569F190
:100D3000D0805E01F5E1AF0EB11C4E0183E0880E5C
:100D4000911CEFEFDE16F1F06D2DC5010E94E3045A
:100D50007C01FC01C580848187FF07C048815981DF
:100D600066817781C4010E944106BE01C7010E94CD
:100D70007506F701848180788483898D8583D98E77
:100D8000DC2CDFCFF801D082D182DF91CF911F918F
:100D90000F91FF90EF90DF90CF90BF90AF909F901A
:100DA0008F900895AF92BF92CF92DF92EF92FF9211
:100DB0000F931F93CF93DF93DC01CD90DC901197BD
:100DC000C114D10439F01496CD91DC918C017601D7
:100DD000209761F4DF91CF911F910F91FF90EF90D9
:100DE000DF90CF90BF90AF90089575015701BFEF8E
:100DF000AB1ABB0AF7018081082E000C990B0E94E8
:100E00001318892B91F72197CC0DDD1D8881082EB1
:100E1000000C990B0E941318892B29F0CE15DF05C1
:100E200010F02197F3CFAE014F5F5F4F4E195F096E
:100E3000D80115965C934E931497CE14DF0420F4DA
:100E4000B701C6010E944F1CD801ED91FC9111978A
:100E500014968D919C91E80FF91F1082BBCFFB0176
:100E600044815581FC01248135812417350778F0B0
:100E700080819181009759F0FB016081718161153A
:100E8000710529F00E94731C21E0892B09F020E0F4
:100E9000822F08950F931F93CF93DF938C01EB0163
:100EA000FC01808191810097E1F068817981611571
:100EB0007105A9F0428153812C813D81421753076E
:100EC00070F00E946C1C8C819D81F8019583848355
:100ED0001D821C82DF91CF911F910F9108950E9476
:100EE000091B88819981F801918380838A819B8184
:100EF000938382838C819D81958384831982188258
:100F00001B821A82E5CFCF93DF93EC018881998110
:100F1000009711F00E94091B198218821D821C8201
:100F20001B821A82DF91CF910895FC01808191810B
:100F3000009711F00C94091B0895CB010C94091B28
:100F40000F931F93CF93DF93EC01888199810097D2
:100F500059F02A813B812617370730F081E0DF9175
:100F6000CF911F910F9108958B016F5F7F4F0E946A
:100F7000921B009759F0998388831B830A832C81E5
:100F80003D81232B59F7FC011082E8CF80E0E7CFA9
:100F9000EF92FF920F931F93CF93DF93611571052B
:100FA00041F480E0DF91CF911F910F91FF90EF907E
:100FB000089541155105B1F07B01EC010C811D81B3
:100FC000040F151FB8010E94A007882351F3288140
:100FD00039818C819D81B701820F931F0E946C1C07
:100FE0001D830C8381E0DECFEF92FF920F931F935E
:100FF000CF93DF93EC017B018A01BA010E94A00725
:1010000081110BC0CE010E948307CE01DF91CF91E9
:101010001F910F91FF90EF9008951D830C83B701EE
:10102000888199810E946C1CF0CFCB01BA010C948D
:10103000921BFC011182108213821282158214828B
:10104000FB0101900020E9F73197AF01461B570BD8
:101050000C94F407FB0101900020E9F73197AF01F0
:10106000461B570BDC01ED91FC910280F381E02DD2
:101070000994CF93DF93FC01448155816081718194
:101080008CED93E00E942703EC0169EC72E08CED9B
:1010900093E00E942A088C0F9D1FDF91CF91089545
:1010A000CF93DF93BC018CED93E00E942A08EC0102
:1010B00069EC72E08CED93E00E942A088C0F9D1F72
:1010C000DF91CF9108955F926F927F928F929F925E
:1010D000AF92BF92CF92DF92EF92FF920F931F9346
:1010E000CF93DF93FC016115710599F4D0E0C0E066
:1010F000CE01DF91CF911F910F91FF90EF90DF9084
:10110000CF90BF90AF909F908F907F906F905F90A7
:1011100008958481982F9F7709F03FC0807880627E
:101120008483309719F38FEF808381838A017B0159
:101130003F015A0185E1A80EB11C6081C5010E94E2
:10114000E304EC01009709F4B5C06D81892B09F423
:10115000B1C0AE81BF81F70101900020E9F731975E
:10116000CF018E199F09F0E0E0E0109739F0FD0102
:1011700001900020E9F73197EA1BFB0B8E179F07C0
:10118000E9F6F7018E0D9F1D8E179F0709F4B0CF6A
:1011900031912D913217C1F3D1CF85FFA7CF309771
:1011A00029F6A4CF4801B5E08B0E911CF801C08050
:1011B000D1808789882349F0C4010E940F06C62F79
:1011C000D72F209711F0D82E8CC0D8015796CC91EC
:1011D000579758969C915897C91326C0C03109F467
:1011E00061C0CC0F55966D917C91D601ED91FC912B
:1011F000B4E0CB9FA00111248616970609F04AC0DF
:101200000190F081E02DBA01C6010995009709F41B
:1012100049C020E1F401DC0101900D922A95E1F72B
:10122000F801968B858BC08FD80155962D913C91F6
:1012300056975796CC91579781E08C0F57968C9381
:10124000B4E0CB9FE0011124C20FD31F90E1592ECF
:10125000803111F48FE0582EE8E05E9EB001112439
:10126000D601ED91FC910190F081E02DC601099528
:101270009B838A83892B09F4512C58821982CD2BA8
:1012800089F0C4010E940F06C62FD72FD82E2097B1
:1012900041F508C00480F581E02DC601099500974D
:1012A00009F0BECF81E0F801828320CFF301D08224
:1012B000D18224C0D8015996DC90BFEFDB1609F427
:1012C00071CF6D2DC5010E94E304EC018D81D80121
:1012D00059968C93209731F31C828FEF8D831F8258
:1012E0001E82D30111966C916F3F01F3C5010E94DC
:1012F000E304FC01D582D3011196DC928C818F77B7
:101300008C83FF82EE82F4CEAF92BF92CF92DF92B7
:10131000EF92FF920F931F93CF93DF936C015B01CA
:10132000DC010D911C911197C8014A9609F477C010
:1013300012966D917C91A8010E9463087C01009730
:1013400009F46DC0F501C481D581A080B180B801D8
:101350000E947506D70114968C9114978078149684
:101360008C93A114B10409F45AC0D8011396ED91DD
:10137000FC919E012A0D3B1D309729F183818C172A
:101380001D0671F4B501CF0104966217730761F071
:10139000DB015D91BD01DC014D91CD015417A9F335
:1013A0000190F081E02DE8CF82818F5F8283D701A9
:1013B00014968C9114978078856014968C9314976A
:1013C000ED93FC932CC0CF3FD10509F028F5BE0169
:1013D0006B5F7F4F6C177D07F8F0F801808191817A
:1013E000DC01ED91FC910190F081E02D0995FC016B
:1013F000892B91F0C38381E08283CF010496A501FC
:101400004C0F5D1F4A155B05F1F0D5012D915D0173
:10141000DC012D93CD01F6CF81E0F8018283D60166
:10142000ED91FC9180E0309719F0828191E089275D
:10143000DF91CF911F910F91FF90EF90DF90CF90B0
:10144000BF90AF900895CE0FDF1F1C82D801139676
:101450008D919C911497918380831496FC93EE93C5
:101460001397A5CFCF92DF92EF92FF920F931F9326
:10147000CF93DF938C016B01DC01ED90FC90119711
:10148000C7014A96A9F012966D917C91A7010E941E
:101490006308EC01009761F0F601C080D180B701CC
:1014A0000E9475068C818078C114D10499F48C83D4
:1014B000D801ED91FC9180E0309719F0828191E0A4
:1014C0008927DF91CF911F910F91FF90EF90DF90CF
:1014D000CF90089584608C83D982C882E9CFCF935E
:1014E000DF93EC01EAA1FBA1E80FF91F1282BC0116
:1014F0006E5F7F4F81F0FB0101900020E9F731978B
:10150000AF01461B570B888199810E94C807882329
:1015100011F01BA21AA28AA19BA1DF91CF9108957D
:101520001F93CF93DF93EC01162F8AA19BA1019605
:101530008097B8F48AA19BA19C012F5F3F4F3BA3EA
:101540002AA38C0F9D1FFC01128321E030E08CA1A7
:101550009DA1820F931F9DA38CA3DF91CF911F911B
:101560000895CE010E946F0A892B21F330E020E01C
:10157000EECFBF92CF92DF92EF92FF920F931F9325
:10158000CF93DF93EC016A018B017B01E40EF51E22
:10159000E016F106D1F0F801B1908F018AA19BA16C
:1015A0000196809760F48AA19BA19C012F5F3F4F19
:1015B0003BA32AA38C0F9D1FFC01B282E9CFCE0171
:1015C0000E946F0A892B79F3E3CF4CA15DA14C0DEA
:1015D0005D1D5DA34CA3DF91CF911F910F91FF90F3
:1015E000EF90DF90CF90BF9008958F929F92AF922F
:1015F000BF92CF92DF92EF92FF920F931F93CF9300
:10160000DF93CDB7DEB766970FB6F894DEBF0FBE97
:10161000CDBF6C018E01095E1F4F78018AE0882ED4
:10162000912CA12CB12CCB01BA01A50194010E94EF
:10163000451A942F852F605DF80162938F01A901EF
:10164000692F782F411551056105710561F7A701D3
:101650004E1B5F0BBF01C6010E94B90A66960FB60A
:10166000F894DEBF0FBECDBFDF91CF911F910F91D8
:10167000FF90EF90DF90CF90BF90AF909F908F90B2
:101680000895FB0101900020E9F73197AF01461B57
:10169000570B0C94B90A1F93CF93DF93E9E3F1E062
:1016A0001281112379F0329621816213F9CFEC0176
:1016B0006CE50E94900A612FCE01DF91CF911F91BE
:1016C0000C94900A6111F9CF6AE471E0DF91CF9137
:1016D0001F910C94410BCF92DF92EF92FF920F93E8
:1016E0001F93CF93DF938C016B017A0162E20E941A
:1016F000900AE601EC0CFD1CCE15DF0529F069917E
:10170000C8010E944B0BF8CF62E2C801DF91CF9174
:101710001F910F91FF90EF90DF90CF900C94900A63
:101720002F923F924F925F926F927F928F929F92F1
:10173000AF92BF92CF92DF92EF92FF920F931F93DF
:10174000CF93DF93CDB7DEB76C970FB6F894DEBFBB
:101750000FBECDBF8C011B01DC0114968C91149738
:101760008F77883009F4B2C2E8F4843009F469C292
:1017700048F4833009F49FC261E571E0C1010E9421
:10178000410B1CC2853009F470C28630A9F78C91D8
:1017900066E571E0811102C06BE571E0C1010E9454
:1017A000410B6DC28C30F1F1C8F48A3029F7CD902D
:1017B000DD90ED90FC90B701A601F7FE0BC06DE245
:1017C000C1010E94900A44275527BA014C195D09AE
:1017D0006E097F09C1010E94F50A51C2803209F4E5
:1017E000F7C1803449F66BE5C1010E94900AF80107
:1017F00010811F3F09F4E7C1D10196968D919C910C
:10180000612F45960E94E3048C01B1010E94900B68
:10181000F80115811F3F09F4D6C16CE2C1010E9495
:10182000900AE7CFF801C080D180E280F380A70161
:101830009601C701B6010E941C1881119DCF20E0BE
:1018400030E0A901C701B6010E941C18882379F075
:10185000A7019601C701B6010E9491199B01AC0135
:10186000C701B6010E941C18882309F485CF20E027
:1018700030E0A901C701B6010E941C1887FF08C00B
:101880006DE2C1010E94900AF7FAF094F7F8F09423
:1018900020E836E948E15BE4C701B6010E942C1A52
:1018A00087FD88C074E1A72EB12C00E210E0188EED
:1018B0001F8AF501E058FF4F2591359145915491CC
:1018C000C701B6010E942C1A87FD13C0F501E85923
:1018D000FF4F2591359145915491C701B6010E9462
:1018E00082186B017C012F89388D200F311F388FB2
:1018F0002F8B1595079534E0A31AB1088CEFA81625
:101900008FEFB806B1F655245A9420E030E0A901D3
:10191000C701B6010E942C1A18160CF052C02CEA0E
:1019200035EC47E257E3C701B6010E941C181816B0
:101930000CF447C0A52DB4E0AB02C0011124B12CBA
:10194000A12CFC01E859FF4F3F019C0120583F4F5B
:1019500049013FEF531609F434C0F301EA0DFB1DB2
:10196000659175918591949120E030E040E251E4D9
:101970000E948218A70196010E942C1A18169CF446
:10198000F401EA0DFB1D2591359145915491C70154
:10199000B6010E9482186B017C018F89988D801B93
:1019A000910B988F8F8B159507955A9494E0A91AEF
:1019B000B108CFCF00E210E055E0552E188E1F8AF7
:1019C000A4CFC701B6010E94FD194B015C012B0198
:1019D0003C0106E080E492E4AFE0B0E0898F9A8FAA
:1019E000AB8FBC8F102F01509AE04916510461044F
:1019F0007104C8F0698D7A8D8B8D9C8D2AE030E062
:101A000040E050E00E94451A298F3A8F4B8F5C8F3F
:101A1000C301B2012AE030E040E050E00E94451AE4
:101A200029013A01DFCFC501B4010E9421189B01B1
:101A3000AC01C701B6010E9490196B017C01698D50
:101A40007A8D8B8D9C8D0E9421189B01AC01C70162
:101A5000B6010E9482182B013C010E94FD196B0106
:101A60007C010E9421189B01AC01C301B2010E94BC
:101A700090199B01AC010E9491190E94FD19C60E9C
:101A8000D71EE81EF91E898D9A8DAB8DBC8DC816A8
:101A9000D906EA06FB06D8F09FEF891A990AA90A27
:101AA000B90AAF89B88DAB2B39F1BAE08B16910426
:101AB000A104B10408F1EF89F88D3196F88FEF8B0E
:101AC000C12CD12C7601812C912C540183942AE0D5
:101AD000422E512C612C712CC701B601A301920139
:101AE0000E94451A672B682B692B51F4111644F498
:101AF00069017A011150F0CFC12CD12C7601E7CFCA
:101B0000B501A401C1010E94F50A112371F14E0132
:101B1000F1E18F0E911C012F54019AE0492E512CB6
:101B2000612C712C015068F0C701B601A30192012C
:101B30000E94451A605DD4016E934D0169017A01DE
:101B4000F1CF812F90E0BC0160957095F501E81B05
:101B5000F90B31978EE2808344275527461B570B9C
:101B60006A0D7B1DC1010E94B90AEF89F88DEF2B28
:101B700029F165E6C1010E94900A0F89188D17FFAF
:101B800007C06DE2C1010E94900A119501951109EB
:101B9000FE0177969F018AE0E82EF12CC801B7017B
:101BA0000E94311A805D82938B01672BB9F7A901DE
:101BB0004E1B5F0BBF01C1010E94B90AD10194966F
:101BC0008D919C915FC06DE5C1010E94900AF6CF96
:101BD0006BE7C1010E94900AF80110811F3F79F163
:101BE000D10196968D919C91612F45960E94E304B8
:101BF0008C01FC01C680D78062E2C1010E94900A7C
:101C00007601D7016D917D01662321F0C1010E940B
:101C10004B0BF7CF62E2C1010E94900A6AE3C10157
:101C20000E94900AB101C8010E94900BF801158131
:101C30001F3F29F06CE2C1010E94900ACFCF6DE7EF
:101C4000C3CFF8016081718150E040E061157105FA
:101C500041F0FB0101900020E9F73197AF01461BED
:101C6000570BC1010E946B0BA9CFED91FC914381F1
:101C700050E0BF016C5F7F4FC1010E946B0BF1010F
:101C800084A195A16C960FB6F894DEBF0FBECDBFB0
:101C9000DF91CF911F910F91FF90EF90DF90CF9048
:101CA000BF90AF909F908F907F906F905F904F907C
:101CB0003F902F900895ED91FC91438150E0BF013A
:101CC0006C5F7F4FC1010E94B90AD9CF4D915D91E0
:101CD0006D917C917FCDCF92DF92EF92FF920F9327
:101CE0001F93CF93DF93CDB7DEB7C85BD1090FB693
:101CF000F894DEBF0FBECDBF6B017C01CA01CB568D
:101D0000DF4F59834883C559D040C954DF4F1982EA
:101D10001882C75BD0400E94830784E2FE01EB5625
:101D2000FF4FDE01AF58BF4F01900D928A95E1F74A
:101D300084E2FE01EF58FF4FDE01A35BBF4F01902D
:101D40000D928A95E1F784E2FE01E35BFF4FDE012D
:101D5000999601900D928A95E1F784E2FE01B99679
:101D6000DE01119601900D928A95E1F71EA21DA247
:101D7000CE0189960E946F0AF8A6EFA2CE01835B7E
:101D80009F4F0E946F0AC114D10431F1BE016F5FF1
:101D90007F4FC6010E94900B7C01CE0101960E94EC
:101DA0006F0ACE018F589F4F0E946F0ACE018B564B
:101DB0009F4F0E946F0AC701C854DF4F0FB6F894B7
:101DC000DEBF0FBECDBFDF91CF911F910F91FF906E
:101DD000EF90DF90CF90089561E571E0CE0101961C
:101DE0000E94410BEDA0FEA0D8CFEF92FF920F937F
:101DF0001F93CF93DF93CDB7DEB7AB970FB6F894B1
:101E0000DEBF0FBECDBF7C0180E091E09A83898365
:101E10001B821D821C82CE0106969F8B8E8B188E94
:101E200084E0898F8FEF8A8F1F8E69E471E0CE0185
:101E300080960E9419088E010F5F1F4F1FA30EA3EB
:101E400081E691E099A788A789E691E09BA78AA7F8
:101E5000BE01665D7F4FCE0186960E94320A1FA3A7
:101E60000EA38FE691E099A788A7B701CE018696C9
:101E70000E948409BE01655E7F4FC801AE01405ECD
:101E80005F4F0E946B0ECE0180960E943908CE01F2
:101E900080960E949507C8010E94A705AB960FB6D1
:101EA000F894DEBF0FBECDBFDF91CF911F910F9190
:101EB000FF90EF900895EF92FF920F931F93CF93AF
:101EC000DF93CDB7DEB7AB970FB6F894DEBF0FBE8A
:101ED000CDBF7C0180E091E09A8389831B821D82C3
:101EE0001C82CE0106969F8B8E8B188E84E0898F84
:101EF0008FEF8A8F1F8E69E471E0CE0180960E9479
:101F000019088E010F5F1F4F1FA30EA381E691E0FA
:101F100099A788A784E791E09BA78AA7BE01665D81
:101F20007F4FCE0186960E94320A1FA30EA38FE632
:101F300091E099A788A7B701CE0186960E948409EF
:101F4000BE01655E7F4FC801AE01405E5F4F0E94DB
:101F50006B0ECE0180960E943908CE0180960E94B9
:101F60009507C8010E94A705AB960FB6F894DEBF8F
:101F70000FBECDBFDF91CF911F910F91FF90EF90DA
:101F80000895CF93DF9300D000D000D0CDB7DEB757
:101F900080911F036DE771E0882311F064E871E020
:101FA000CE0101960E941908CE0101960E945B0F96
:101FB000CE0101960E94950726960FB6F894DEBFD3
:101FC0000FBECDBFDF91CF910895CF93DF9300D0A7
:101FD00000D000D0CDB7DEB7019787309105F0F47F
:101FE000FC01EB50F04F0C94671AFC0F17102910EE
:101FF0003B104D105F1085106AE871E0CE0101962C
:102000000E941908CE0101960E94F50ECE0101969C
:102010000E9495070E94C10F0E944A0526960FB69E
:10202000F894DEBF0FBECDBFDF91CF91089564E974
:1020300071E0CE0101960E941908CE0101960E941E
:10204000F50ECE0101960E9495070E94C10F0E94D5
:102050004A056FE971E0CE0101960E941908CE0190
:1020600001960E94F50ECE0101960E9495070E94EE
:10207000C10F0E944A0561EC71E0CE0101960E94F9
:102080001908CE0101960E94F50ECE0101960E941C
:1020900095070E94C10F0E944A0568EF71E0CE01CA
:1020A00001960E941908CE0101960E94F50ECE01FC
:1020B00001960E9495070E94C10F0E944A0567E0A1
:1020C00072E0CE0101960E941908CE0101960E948D
:1020D0005B0FCE0101960E94950764E670E080E0F8
:1020E00090E00E94B8026EE072E0CE0101960E947C
:1020F0001908CE0101960E94F50ECE0101960E94AC
:1021000095070E94C10F0E944A056FE272E076CFE8
:10211000CF92DF92EF92FF920F931F93CF93DF93B3
:10212000CDB7DEB762970FB6F894DEBF0FBECDBF56
:1021300069E471E0CE010D960E9419081092DA024E
:1021400010E000E0FF24F3948FE393E00E94850306
:10215000892B09F5F092DA020115110571F462E597
:1021600072E0CE0101960E941908CE0101960E94EC
:10217000F50ECE0101960E94950762E370E080E0C3
:1021800090E00E94B8020F5F1F4F04361105E1F680
:1021900006E010E0F6C08FE393E00E948503892BF0
:1021A00031F169E471E0CE0101960E9419088FE3D4
:1021B00093E00E94EB0297FD0FC08A30910561F019
:1021C0008F83188641E050E0BE01695F7F4FCE01EA
:1021D00001960E94C807EBCFBE016F5F7F4FCE0113
:1021E0000D960E944A07CE0101960E949507CE01E6
:1021F0000D960E94D2068091DA02882371F067E082
:1022000072E0CE0101960E941908CE0101960E944B
:102210005B0FCE0101960E94950760E772E0CE0148
:1022200007960E941908BE01695F7F4FCE010D9687
:102230000E942F0711E0811115C064E772E0CE0102
:1022400001960E941908BE016F5F7F4FCE010D9667
:102250000E942F0711E0811101C010E0CE0101960C
:102260000E949507CE0107960E949507112319F148
:102270000D851E8529893A89F12CE12C6701E2162A
:10228000F30609F40EC180E00115110521F0F801F3
:10229000EE0DFF1D8081082E000C990BC0970A9748
:1022A00008F492C08FEFE81AF80AE8CFCE01019641
:1022B0000E948307C8C068E772E0CE0101960E94C1
:1022C0001908BE016F5F7F4FCE010D960E942F0748
:1022D000182FCE0101960E949507111166C06CE778
:1022E00072E0CE0101960E941908BE016F5F7F4F18
:1022F000CE010D960E942F07182FCE0101960E9445
:102300009507111155C060E872E0CE0101960E9458
:102310001908BE016F5F7F4FCE010D960E942F07F7
:10232000182FCE0101960E949507111144C063E851
:1023300072E0CE0101960E941908BE016F5F7F4FC7
:10234000CE010D960E942F07182FCE0101960E94F4
:102350009507111133C066E872E0CE0101960E9424
:102360001908BE016F5F7F4FCE010D960E942F07A7
:10237000182FCE0101960E949507111122C005E089
:1023800010E0CE010D960E949507C80162960FB627
:10239000F894DEBF0FBECDBFDF91CF911F910F919B
:1023A000FF90EF90DF90CF90089501E010E0E9CF2B
:1023B00002E010E0E6CF03E010E0E3CF04E010E03D
:1023C000E0CF07E010E0DDCF67E670E0C8018E0DDA
:1023D0009F1D0E94581C009709F463C0801B910B3D
:1023E0008F3F980709F45DC08C018E159F0510F48E
:1023F0006C01870169E471E0CE0101960E94190821
:10240000E988FA88CE14DF0420F50E151F0508F4BC
:102410007801ED85FE85EE0DFF1D108110826D8522
:102420007E856C0D7D1D6115710509F43FCFFB01A3
:1024300001900020E9F73197AF01461B570BCE0101
:1024400001960E94F4078D859E85E80EF91EF7011E
:102450001083BE016F5F7F4FCE010D960E944A0729
:10246000CE0101960E949507CE010D960E94D206DC
:102470001A8219821C821B821E821D826D857E85B6
:102480006115710531F049895A89CE0101960E9482
:10249000F407CE0101960E94F50ECE0101960E942E
:1024A000950710E000E06DCFCB010C946D1A1F92E0
:1024B0000F920FB60F9211242F933F938F939F93F8
:1024C000AF93BF938091260390912703A091280397
:1024D000B09129033091250323E0230F2D3758F5C0
:1024E0000196A11DB11D209325038093260390938F
:1024F0002703A0932803B093290380912A03909186
:102500002B03A0912C03B0912D030196A11DB11DA9
:1025100080932A0390932B03A0932C03B0932D0355
:10252000BF91AF919F918F913F912F910F900FBECF
:102530000F901F90189526E8230F0296A11DB11D3C
:10254000D2CF1F920F920FB60F9211242F933F9369
:102550004F935F936F937F938F939F93AF93BF93AB
:10256000EF93FF938091330390913403A09135034F
:10257000B0913603892B8A2B8B2BD1F190912E03AE
:10258000E0912F03F091300380818927808380912F
:10259000330390913403A0913503B091360318169C
:1025A00019061A061B069CF480913303909134039C
:1025B000A0913503B09136030197A109B109809329
:1025C000330390933403A0933503B0933603FF9104
:1025D000EF91BF91AF919F918F917F916F915F919B
:1025E0004F913F912F910F900FBE0F901F90189514
:1025F00080910401E6EBF0E0E4919FEF90930401F9
:10260000E13051F030F0E23069F060E00E945301B7
:10261000DECF10926E00F9CF90916F009D7F909366
:102620006F00F3CF909170009D7F9093700091E0C8
:102630009093B0009091B100987F94609093B10016
:102640001092B300E2CF1F920F920FB60F92112497
:102650002F933F934F935F936F937F938F939F93AA
:10266000AF93BF93EF93FF938FE393E00E94A50393
:10267000FF91EF91BF91AF919F918F917F916F915A
:102680005F914F913F912F910F900FBE0F901F9030
:1026900018951F920F920FB60F9211242F938F93BC
:1026A0009F93EF93FF93E0914F03F091500380814C
:1026B000E0915503F091560382FD1BC090818091FB
:1026C00058038F5F8F7320915903821741F0E09177
:1026D0005803F0E0E15CFC4F958F80935803FF9125
:1026E000EF919F918F912F910F900FBE0F901F90A0
:1026F00018958081F4CF1F920F920FB60F9211247C
:102700002F933F934F935F936F937F938F939F93F9
:10271000AF93BF93EF93FF93E0911D03F0911E03DE
:10272000309749F0A685B7858585968D91FF14C0B1
:102730009C918923A1F4FF91EF91BF91AF919F915B
:102740008F917F916F915F914F913F912F910F905A
:102750000FBE0F901F9018959C91892361F7A38954
:10276000B4899C918589809589238C9386899789E2
:102770000197F1F7608D718DA685B785558538E095
:1027800020E0CB010197F1F7822F90E09595879596
:10279000282F4C91452309F02068315091F7868D00
:1027A00081FD209580911C0390E001968F739927FD
:1027B00030911B03381799F0A0911C03B0E0A5528B
:1027C000BD4F2C9380931C03828D938D0197F1F75D
:1027D000A389B4898C919589892B8C93ACCF868DF4
:1027E0008160868FF1CF109242031092410388EEF0
:1027F00093E0A0E0B0E08093430390934403A09360
:102800004503B093460329E131E030934003209320
:102810003F0325EC30E030934C0320934B0324EC32
:1028200030E030934E0320934D0320EC30E03093A2
:10283000500320934F0321EC30E030935203209358
:10284000510322EC30E0309354032093530326ECE1
:1028500030E03093560320935503109258031092A2
:10286000590310925A0310925B031092DF031092E7
:10287000DE038093E0039093E103A093E203B0931F
:10288000E3038BE291E09093DD038093DC031092ED
:10289000F3031092F2031092F5031092F4031092D6
:1028A000F7031092F6031092F9031092F803609167
:1028B000FA036E7F6D7F6093FA036695617081E025
:1028C000682785E00E94530161E085E00E94810154
:1028D000E4EEF0E0E491E093EC03E0EDF0E0E4916D
:1028E000F0E0EE0FFF1FEF53FF4F8591949190930F
:1028F000EE038093ED0360E084E00E94810180910B
:10290000FA0381FD04C061E084E00E94530184E089
:102910008093E803E3EEF0E0E491E093E903EFEC69
:10292000F0E0E491F0E0EE0FFF1FE954FF4F8591D6
:1029300094919093EB038093EA030895CF93DF93F0
:10294000CDB7DEB72E970FB6F894DEBF0FBECDBF62
:10295000789484B5826084BD84B5816084BD85B57A
:10296000826085BD85B5816085BD80916E00816086
:1029700080936E001092810080918100826080932C
:10298000810080918100816080938100809180002E
:102990008160809380008091B10084608093B10059
:1029A0008091B00081608093B00080917A00846053
:1029B00080937A0080917A00826080937A0080917F
:1029C0007A00816080937A0080917A008068809399
:1029D0007A001092C10061E08CE00E94810161E008
:1029E0008BE00E94810161E08EE00E94810161E044
:1029F00083E00E94810160E086E00E94810161E045
:102A000083E00E9481011092F7031092F603109266
:102A1000F5031092F4031092F3031092F2038DE980
:102A200091E09093F9038093F8039091E803963135
:102A300008F047C02DEB30E03093F3032093F2030E
:102A40002BE931E03093F5032093F4032CE231E0DD
:102A50003093F7032093F6032091680084E09830C8
:102A600048F031E09E3008F430E081E001C0880F8A
:102A70003A95EAF7822B809368002DE630E0983093
:102A800050F02BE630E09E3030F02CE630E096310E
:102A900010F030E020E03093F0032093EF03292F73
:102AA00030E0983008F096C081E001C0880F9A9518
:102AB000EAF78093F1038091F8039091F90301976D
:102AC000F1F78091F6039091F703892B49F1E0919A
:102AD0001D03F0911E0323E0EC3DF20709F130974E
:102AE00039F0A389B4899C918589809589238C9339
:102AF0008091FA038E7F8093FA0310921C03109248
:102B00001B038CED93E090931E0380931D03E091D3
:102B1000EF03F091F00380819091F103892B808382
:102B200061E083E00E9453018AE892E00E9450082D
:102B300060E083E00E94530162E370E080E090E097
:102B40000E94B80261E083E00E9453018BE992E0A9
:102B50000E94500860E083E00E94530162E370E04D
:102B600080E090E00E94B80261E083E00E9453019F
:102B70008FEA92E00E94500860E083E00E945301D7
:102B800062E370E080E090E00E94B80269E471E0E6
:102B9000CE0107960E9419088CED93E00E94A904CB
:102BA000892B89F169E471E0CE0101960E94190830
:102BB0008CED93E00E94EB0297FD19C08D871E8675
:102BC00041E050E0BE01635F7F4FCE0101960E945D
:102BD000C807EECF9E3040F42850310981E001C093
:102BE000880F2A95EAF765CF2E503109F7CFBE013D
:102BF0006F5F7F4FCE0107960E944A07CE01019674
:102C00000E949507C9CF8B859C85892BD1F00F81B8
:102C10001885F80180818823A1F068EB72E0C80173
:102C20000E94631C892B09F079C044E260E072ECD9
:102C300081E090E00E94A60061E090E080E00E94C8
:102C40004B19CE0107960E94950761E08CE00E9427
:102C5000530161E08EE00E94530161E08BE00E942D
:102C6000530190E080E00E94431946E0813009F46E
:102C700044E260E875E280E090E00E94A60080E017
:102C8000482E80E0582E93E0692E712C882483947E
:102C9000912C82E00E942A01892B09F450C060E047
:102CA0008EE00E94530111E01093240380912303CE
:102CB000811108C060EC72E08CED93E00E942A085C
:102CC0001093230380912403882309F4A2C08091E8
:102CD0000201909103018230910509F4A6C083306E
:102CE000910509F4F9C00197A9F586E090E00E94EA
:102CF0007705019779F562EC72E08FE393E00E942B
:102D00002A0868EC70E080E090E00E94B8020E941F
:102D100088100097D9F00E94E50F1CC06CEB72E0A0
:102D2000C8010E94631C892B09F08BCF46E060E04C
:102D300072EC81E090E00E94A60060E07ECF61E04E
:102D40008EE00E94530110922303BCCF0E94C10F5A
:102D50000E94FE0488E090E00E9477057C0189E0F3
:102D600090E00E9477058C018AE090E00E94770550
:102D70005C0187E090E00E9477056C0121E0A216DB
:102D8000B10409F003C166ED72E0CE0101960E9424
:102D90001908CE0101960E945B0FCE0101960E9498
:102DA00095070130110509F0FDC064E871E0CE011E
:102DB00001960E941908CE0101960E945B0FCE0178
:102DC00001960E949507E1E0CE16D10409F0F5C006
:102DD00061ED72E0CE0101960E941908CE010196C4
:102DE0000E945B0FCE0101960E94950721E0E2163A
:102DF000F10409F0EEC06CEC72E0CE0101960E9485
:102E00001908CE0101960E945B0FCE0101960E9427
:102E100095074114510409F43CCF0E949103882383
:102E200009F437CF0E94000034CF80912203882319
:102E300091F067EC72E08FE393E00E942A0868EC5F
:102E400070E080E090E00E94B8020E948810009735
:102E500089F10E94E50F80912203882381F18FB7C9
:102E6000F894C0902603D0902703E0902803F090B8
:102E700029038FBF2FB7F8948091260390912703E1
:102E8000A0912803B09129032FBF8C199D09AE0989
:102E9000BF09803D9740A105B10508F05BCF86E0F2
:102EA00090E00E947705029729F78091220391E034
:102EB00089270DC00E94C10F0E94FE04CCCF86E07E
:102EC00090E00E947705029709F044CF81E080935B
:102ED00022030E9422053ECF86E090E00E94770503
:102EE0008C01019709F036CF62EC72E08FE393E03A
:102EF0000E942A0868EC70E080E090E00E94B8022E
:102F00000E948810009709F006CF809120039091CD
:102F100021030097A9F464E871E0CE0101960E94B4
:102F20001908CE0101960E945B0FCE0101960E9406
:102F300095070E94FE0410932103009320030ACFFB
:102F4000019709F007CF6CEC72E0CE0101960E9468
:102F50001908CE0101960E945B0FCE0101960E94D6
:102F6000950761ED72E0CE0101960E941908CE012D
:102F700001960E945B0FCE0101960E9495070E9468
:102F8000FE041092210310922003E4CE82E0A816E2
:102F9000B10409F006CF90920301809202010E94D1
:102FA0002205FFCE0230110509F00DCF1093030169
:102FB000009302010E94220506CFF2E0CF16D10451
:102FC00009F014CF70920301609202010E94220561
:102FD0000DCF82E0E816F10409F01BCF80911F03AA
:102FE00091E0892780931F030E94220512CF8BE274
:102FF00091E09093DD038093DC0380911D03909119
:103000001E038C5D934071F4E091EF03F091F003A7
:1030100090818091F10380958923808310921E0313
:1030200010921D03089591110C94EF18803219F03D
:1030300089508550C8F708950E945E1808F481E011
:103040000895E89409C097FB3EF49095809570959B
:1030500061957F4F8F4F9F4F9923A9F0F92F96E9E4
:10306000BB279395F695879577956795B795F11159
:10307000F8CFFAF4BB0F11F460FF1BC06F5F7F4FF6
:103080008F4F9F4F16C0882311F096E911C0772308
:1030900021F09EE8872F762F05C0662371F096E811
:1030A000862F70E060E02AF09A95660F771F881FE0
:1030B000DAF7880F9695879597F90895990F000884
:1030C000550FAA0BE0E8FEEF16161706E807F907FA
:1030D000C0F012161306E407F50798F0621B730B95
:1030E000840B950B39F40A2661F0232B242B252B16
:1030F00021F408950A2609F4A140A6958FEF811DB9
:10310000811D08950E9495180C9409190E94FB18BE
:1031100038F00E94021920F0952311F00C94F21857
:103120000C94F81811240C943D190E941A1970F38C
:10313000959FC1F3950F50E0551F629FF001729F5C
:10314000BB27F00DB11D639FAA27F00DB11DAA1F6B
:10315000649F6627B00DA11D661F829F2227B00DB8
:10316000A11D621F739FB00DA11D621F839FA00D43
:10317000611D221F749F3327A00D611D231F849F93
:10318000600D211D822F762F6A2F11249F575040EA
:103190009AF0F1F088234AF0EE0FFF1FBB1F661F65
:1031A000771F881F91505040A9F79E3F510580F02E
:1031B0000C94F2180C943D195F3FE4F3983ED4F35D
:1031C000869577956795B795F795E7959F5FC1F7D2
:1031D000FE2B880F911D9695879597F9089599274D
:1031E0008827089597F99F6780E870E060E0089568
:1031F0009FEF80EC089500240A941616170618060F
:103200000906089500240A941216130614060506EA
:103210000895092E0394000C11F4882352F0BB0F7B
:1032200040F4BF2B11F460FF04C06F5F7F4F8F4FDE
:103230009F4F089557FD9058440F551F59F05F3F19
:1032400071F04795880F97FB991F61F09F3F79F0C8
:1032500087950895121613061406551FF2CF46954A
:10326000F1DF08C0161617061806991FF1CF8695CC
:103270007105610508940895E894BB2766277727B0
:10328000CB0197F90895F999FECF92BD81BDF89AC7
:10329000992780B50895262FF999FECF1FBA92BDC0
:1032A00081BD20BD0FB6F894FA9AF99A0FBE019627
:1032B00008952F923F924F925F926F927F928F92DA
:1032C0009F92AF92BF92CF92DF92EF92FF920F93B5
:1032D0001F93CF93DF93CDB7DEB7CA1BDB0B0FB6BF
:1032E000F894DEBF0FBECDBF09942A88398848887C
:1032F0005F846E847D848C849B84AA84B984C88412
:10330000DF80EE80FD800C811B81AA81B981CE0F08
:10331000D11D0FB6F894DEBF0FBECDBFED010895ED
:103320005058BB27AA270E94A8190C9409190E947B
:10333000FB1838F00E94021920F039F49F3F19F46D
:1033400026F40C94F8180EF4E095E7FB0C94F218B0
:10335000E92F0E941A1958F3BA17620773078407F6
:10336000950720F079F4A6F50C943C190EF4E0953D
:103370000B2EBA2FA02D0B01B90190010C01CA012F
:10338000A0011124FF27591B99F0593F50F4503EDA
:1033900068F11A16F040A22F232F342F4427585FCC
:1033A000F3CF469537952795A795F0405395C9F7E4
:1033B0007EF41F16BA0B620B730B840BBAF091509C
:1033C000A1F0FF0FBB1F661F771F881FC2F70EC03B
:1033D000BA0F621F731F841F48F48795779567950E
:1033E000B795F7959E3F08F0B0CF9395880F08F0FA
:1033F0009927EE0F9795879508950E94221988F0D6
:103400009F5798F0B92F9927B751B0F0E1F0660FA8
:10341000771F881F991F1AF0BA95C9F714C0B130E9
:1034200091F00E943C19B1E008950C943C19672F6B
:10343000782F8827B85F39F0B93FCCF38695779518
:103440006795B395D9F73EF4909580957095619501
:103450007F4F8F4F9F4F08950E945E1808F48FEFA3
:103460000895AA1BBB1B51E107C0AA1FBB1FA617CB
:10347000B70710F0A61BB70B881F991F5A95A9F71D
:1034800080959095BC01CD010895A1E21A2EAA1B4A
:10349000BB1BFD010DC0AA1FBB1FEE1FFF1FA21704
:1034A000B307E407F50720F0A21BB30BE40BF50B01
:1034B000661F771F881F991F1A9469F7609570958A
:1034C000809590959B01AC01BD01CF010895EE0F51
:1034D000FF1F0590F491E02D09940F931F93CF9354
:1034E000DF938230910510F482E090E0E091FD03DB
:1034F000F091FE0330E020E0B0E0A0E0309799F4D6
:103500002115310509F44AC0281B390B2430310537
:10351000D8F58A819B816115710589F1FB0193833F
:103520008283FE0111C040815181028113814817BD
:103530005907E0F04817590799F4109761F012966F
:103540000C93129713961C933296CF01DF91CF9173
:103550001F910F9108950093FD031093FE03F4CF84
:103560002115310551F04217530738F0A901DB014D
:103570009A01BD01DF01F801C1CFEF01F9CF9093AE
:10358000FE038093FD03CDCFFE01E20FF31F819375
:1035900091932250310939832883D7CF2091FB039F
:1035A0003091FC03232B41F4209107013091080155
:1035B0003093FC032093FB03209105013091060119
:1035C0002115310541F42DB73EB7409109015091C5
:1035D0000A01241B350BE091FB03F091FC03E21779
:1035E000F307A0F42E1B3F0B2817390778F0AC0126
:1035F0004E5F5F4F2417350748F04E0F5F1F509303
:10360000FC034093FB03819391939FCFF0E0E0E0B4
:103610009CCFCF93DF930097E9F0FC0132971382A0
:103620001282A091FD03B091FE03ED0130E020E095
:103630001097A1F420813181820F931F2091FB0309
:103640003091FC032817390709F061C0F093FC039F
:10365000E093FB03DF91CF910895EA01CE17DF07D6
:10366000E8F54A815B819E0141155105B1F7E901F9
:10367000FB83EA8349915991C40FD51FEC17FD07CD
:1036800061F4808191810296840F951FE9019983ED
:103690008883828193819B838A83F0E0E0E01296A5
:1036A0008D919C9113970097B9F52D913C911197AD
:1036B000CD010296820F931F2091FB033091FC03F2
:1036C0002817390739F6309751F51092FE031092FA
:1036D000FD03B093FC03A093FB03BCCFD383C28351
:1036E00040815181840F951FC817D90761F44E5F3F
:1036F0005F4F88819981480F591F518340838A8188
:103700009B81938382832115310509F0B0CFF0931B
:10371000FE03E093FD039ECFFD01DC01C0CF1382C9
:103720001282D7CFB0E0A0E0E8E9FBE10C945B198E
:103730008C01009751F4CB010E946D1A8C01C801D5
:10374000CDB7DEB7E0E10C947719FC01E60FF71F67
:103750009C0122503109E217F30708F49DC0D901FA
:10376000CD91DC911197C617D70798F0C530D105D8
:1037700030F3CE0104978617970708F3C61BD70BC3
:103780002297C193D1936D937C93CF010E94091B23
:10379000D6CF5B01AC1ABD0A4C018C0E9D1EA091C8
:1037A000FD03B091FE03512C412CF12CE12C10971C
:1037B00031F58091FB039091FC038815990509F080
:1037C0005CC04616570608F058C0809105019091DC
:1037D0000601009741F48DB79EB7409109015091C1
:1037E0000A01841B950BE817F90708F055C0F09300
:1037F000FC03E093FB03F90171836083A0CF8D91FB
:103800009C91119712966C90129713967C90139737
:10381000A815B90559F56C0142E0C40ED11CCA14B3
:10382000DB0420F1AC014A195B09DA011296159705
:1038300080F06282738251834083D9016D937C93BF
:10384000E114F10471F0D7011396FC93EE931297F3
:1038500076CF22968C0F9D1FF90191838083F3010F
:10386000EFCFF093FE03E093FD0369CF48165906AE
:1038700008F42C017D01D3019ACFCB010E946D1A6F
:103880007C01009749F0AE01B8010E944F1CC801AD
:103890000E94091B870153CF10E000E050CFFB01CD
:1038A000DC0102C001900D9241505040D8F70895BC
:1038B000FC018191861721F08823D9F79927089573
:1038C0003197CF010895FB01DC018D9101908019A2
:1038D0000110D9F3990B0895FB01DC0101900D92C1
:1038E0000020E1F70895FB01DC014150504030F029
:1038F0008D910190801919F40020B9F7881B990B5C
:10390000089510E0CBE7D0E004C0FE010E94671AE2
:0C3910002196CC37D107C9F7F894FFCFFF
:10391C000F010100FF0000FF0380000000000054B5
:10392C00129D07150800000000C703270354031459
:10393C0004850363037703000000004D042703E0B4
:10394C00044C04A904BF0434042F2F22225C5C62B3
:10395C0008660C6E0A720D7409005C7530303030DC
:10396C00006E756C6C00747275650066616C7365C5
:10397C0000636F6D6D616E64007072696E740064CB
:10398C00617461006B6579626F61726400524554B9
:10399C0055524E005249474854004F7665726C6F31
:1039AC0061642100556E6465726C6F616421005313
:1039BC00796E746178204572726F723A204120637F
:1039CC006F6D6D616E642069732077726F6E672EF8
:1039DC00004C6F676963616C204572726F723A209C
:1039EC004120726563656976656420636F6D6D61F6
:1039FC006E642063616E206E6F7420626520657842
:103A0C006563757465642E00556E6B6E6F776E20F2
:103A1C004572726F72210044454C45544500576104
:103A2C0069742074696D65206F75742C20706C65D9
:103A3C006173652074727920616761696E2E00452F
:103A4C0072726F723A20696E76616C6964206D6572
:103A5C0061737572656D656E7420726573756C74C7
:103A6C002E004461746120756E737461626C652CF8
:103A7C0020706C6561736520776169742E2E2E0041
:103A8C00532053005320440053202B0053202D006F
:103A9C00455300454C005320490041542B5541528D
:103AAC00543D393630302C302C300041542B4E41A3
:103ABC004D453D42426F78706C7573303036004125
:103ACC00542B52455345540037453100384E310084
:103ADC00590053550D0A0053490D0A004C454654E4
:0A3AEC0000444F574E0055500000F3
:00000001FF
